{
  "contractName": "Flipper",
  "abi": [
    {
      "inputs": [],
      "stateMutability": "nonpayable",
      "type": "constructor"
    },
    {
      "anonymous": false,
      "inputs": [
        {
          "indexed": false,
          "internalType": "bool",
          "name": "result",
          "type": "bool"
        }
      ],
      "name": "Flipped",
      "type": "event"
    },
    {
      "inputs": [],
      "name": "lastFlipResult",
      "outputs": [
        {
          "internalType": "bool",
          "name": "",
          "type": "bool"
        }
      ],
      "stateMutability": "view",
      "type": "function"
    },
    {
      "inputs": [],
      "name": "flipCoin",
      "outputs": [
        {
          "internalType": "bool",
          "name": "",
          "type": "bool"
        }
      ],
      "stateMutability": "nonpayable",
      "type": "function"
    },
    {
      "inputs": [],
      "name": "getCurrentState",
      "outputs": [
        {
          "internalType": "bool",
          "name": "",
          "type": "bool"
        }
      ],
      "stateMutability": "view",
      "type": "function"
    }
  ],
  "bytecode": "0x608060405234801561000f575f80fd5b5060015f806101000a81548160ff0219169083151502179055506103a5806100365f395ff3fe608060405234801561000f575f80fd5b506004361061003f575f3560e01c8063378aa70114610043578063799ae22314610061578063a22edadf1461007f575b5f80fd5b61004b61009d565b6040516100589190610196565b60405180910390f35b6100696100b1565b6040516100769190610196565b60405180910390f35b61008761016c565b6040516100949190610196565b60405180910390f35b5f805f9054906101000a900460ff16905090565b5f8042336001436100c291906101e5565b406040516020016100d5939291906102d6565b6040516020818303038152906040528051906020012090505f815f1c90505f80600283610102919061033f565b036101105760019050610114565b5f90505b805f806101000a81548160ff0219169083151502179055507f1865bbf6b35a0abc70661ed5e4050e07bb8d173ef7c0c116598f4d4adb7a668a8160405161015b9190610196565b60405180910390a180935050505090565b5f8054906101000a900460ff1681565b5f8115159050919050565b6101908161017c565b82525050565b5f6020820190506101a95f830184610187565b92915050565b5f819050919050565b7f4e487b71000000000000000000000000000000000000000000000000000000005f52601160045260245ffd5b5f6101ef826101af565b91506101fa836101af565b9250828203905081811115610212576102116101b8565b5b92915050565b5f819050919050565b61023261022d826101af565b610218565b82525050565b5f73ffffffffffffffffffffffffffffffffffffffff82169050919050565b5f61026182610238565b9050919050565b5f8160601b9050919050565b5f61027e82610268565b9050919050565b5f61028f82610274565b9050919050565b6102a76102a282610257565b610285565b82525050565b5f819050919050565b5f819050919050565b6102d06102cb826102ad565b6102b6565b82525050565b5f6102e18286610221565b6020820191506102f18285610296565b60148201915061030182846102bf565b602082019150819050949350505050565b7f4e487b71000000000000000000000000000000000000000000000000000000005f52601260045260245ffd5b5f610349826101af565b9150610354836101af565b92508261036457610363610312565b5b82820690509291505056fea2646970667358221220bcbaa76d9d89623602c6b857a55137a0495a387589287eecece486ca394ba9f964736f6c63430008150033",
  "immutableReferences": {},
  "source": "// SPDX-License-Identifier: MIT\npragma solidity ^0.8.0;\n\ncontract Flipper {\n    event Flipped(bool result);\n    bool public lastFlipResult;\n\n    constructor() {\n        lastFlipResult = true;\n    }\n\n    function flipCoin() public returns (bool) {\n        bytes32 hash = keccak256(abi.encodePacked(block.timestamp, msg.sender, blockhash(block.number - 1)));\n        uint256 hashNumber = uint256(hash);\n\n        bool result;\n        if (hashNumber % 2 == 0) {\n            result = true;\n        } else {\n            result = false;\n        }\n\n        lastFlipResult = result;\n        emit Flipped(result);\n        return result;\n    }\n\n    function getCurrentState() public view returns (bool) {\n        return lastFlipResult;\n    }\n}",
  "sourcePath": "/home/aayush/Documents/coinflipgame/contracts/Flipper.sol",
  "compiler": {
    "name": "solc",
    "version": "0.8.21+commit.d9974bed.Emscripten.clang"
  },
  "schemaVersion": "3.4.16",
  "updatedAt": "2024-08-26T16:40:56.729Z",
  "devdoc": {
    "kind": "dev",
    "methods": {},
    "version": 1
  },
  "userdoc": {
    "kind": "user",
    "methods": {},
    "version": 1
  }
}